{
    "_format": "hh-sol-artifact-1",
    "contractName": "NFTCollection",
    "sourceName": "contracts/NFTCollection.sol",
    "abi": [
        {
            "inputs": [
                {
                    "components": [
                        {
                            "internalType": "uint256",
                            "name": "maxSupply",
                            "type": "uint256"
                        },
                        {
                            "internalType": "uint256",
                            "name": "whitelistedFee",
                            "type": "uint256"
                        },
                        {
                            "internalType": "uint256",
                            "name": "mintFee",
                            "type": "uint256"
                        },
                        {
                            "internalType": "uint256",
                            "name": "maxQuantity",
                            "type": "uint256"
                        },
                        {
                            "internalType": "uint96",
                            "name": "royalty",
                            "type": "uint96"
                        },
                        {
                            "internalType": "uint256",
                            "name": "WhiteListStartTime",
                            "type": "uint256"
                        },
                        {
                            "internalType": "uint256",
                            "name": "WhiteListEndTime",
                            "type": "uint256"
                        },
                        {
                            "internalType": "uint256",
                            "name": "maxNFTPerUser",
                            "type": "uint256"
                        }
                    ],
                    "internalType": "struct NFTCollection.UintArgs",
                    "name": "_uints",
                    "type": "tuple"
                },
                {
                    "internalType": "address",
                    "name": "_creator",
                    "type": "address"
                },
                {
                    "components": [
                        {
                            "internalType": "string",
                            "name": "name",
                            "type": "string"
                        },
                        {
                            "internalType": "string",
                            "name": "symbol",
                            "type": "string"
                        },
                        {
                            "internalType": "string",
                            "name": "baseURI",
                            "type": "string"
                        },
                        {
                            "internalType": "string",
                            "name": "contractURI",
                            "type": "string"
                        }
                    ],
                    "internalType": "struct NFTCollection.StringArgs",
                    "name": "_strings",
                    "type": "tuple"
                },
                {
                    "internalType": "address",
                    "name": "_currency",
                    "type": "address"
                }
            ],
            "stateMutability": "nonpayable",
            "type": "constructor"
        },
        {
            "inputs": [],
            "name": "ApprovalCallerNotOwnerNorApproved",
            "type": "error"
        },
        {
            "inputs": [],
            "name": "ApprovalQueryForNonexistentToken",
            "type": "error"
        },
        {
            "inputs": [],
            "name": "ApproveToCaller",
            "type": "error"
        },
        {
            "inputs": [],
            "name": "BalanceQueryForZeroAddress",
            "type": "error"
        },
        {
            "inputs": [],
            "name": "MintERC2309QuantityExceedsLimit",
            "type": "error"
        },
        {
            "inputs": [],
            "name": "MintToZeroAddress",
            "type": "error"
        },
        {
            "inputs": [],
            "name": "MintZeroQuantity",
            "type": "error"
        },
        {
            "inputs": [],
            "name": "OwnerQueryForNonexistentToken",
            "type": "error"
        },
        {
            "inputs": [],
            "name": "OwnershipNotInitializedForExtraData",
            "type": "error"
        },
        {
            "inputs": [],
            "name": "TransferCallerNotOwnerNorApproved",
            "type": "error"
        },
        {
            "inputs": [],
            "name": "TransferFromIncorrectOwner",
            "type": "error"
        },
        {
            "inputs": [],
            "name": "TransferToNonERC721ReceiverImplementer",
            "type": "error"
        },
        {
            "inputs": [],
            "name": "TransferToZeroAddress",
            "type": "error"
        },
        {
            "inputs": [],
            "name": "URIQueryForNonexistentToken",
            "type": "error"
        },
        {
            "anonymous": false,
            "inputs": [
                {
                    "indexed": true,
                    "internalType": "address",
                    "name": "owner",
                    "type": "address"
                },
                {
                    "indexed": true,
                    "internalType": "address",
                    "name": "approved",
                    "type": "address"
                },
                {
                    "indexed": true,
                    "internalType": "uint256",
                    "name": "tokenId",
                    "type": "uint256"
                }
            ],
            "name": "Approval",
            "type": "event"
        },
        {
            "anonymous": false,
            "inputs": [
                {
                    "indexed": true,
                    "internalType": "address",
                    "name": "owner",
                    "type": "address"
                },
                {
                    "indexed": true,
                    "internalType": "address",
                    "name": "operator",
                    "type": "address"
                },
                {
                    "indexed": false,
                    "internalType": "bool",
                    "name": "approved",
                    "type": "bool"
                }
            ],
            "name": "ApprovalForAll",
            "type": "event"
        },
        {
            "anonymous": false,
            "inputs": [
                {
                    "indexed": true,
                    "internalType": "uint256",
                    "name": "fromTokenId",
                    "type": "uint256"
                },
                {
                    "indexed": false,
                    "internalType": "uint256",
                    "name": "toTokenId",
                    "type": "uint256"
                },
                {
                    "indexed": true,
                    "internalType": "address",
                    "name": "from",
                    "type": "address"
                },
                {
                    "indexed": true,
                    "internalType": "address",
                    "name": "to",
                    "type": "address"
                }
            ],
            "name": "ConsecutiveTransfer",
            "type": "event"
        },
        {
            "anonymous": false,
            "inputs": [
                {
                    "indexed": true,
                    "internalType": "address",
                    "name": "previousOwner",
                    "type": "address"
                },
                {
                    "indexed": true,
                    "internalType": "address",
                    "name": "newOwner",
                    "type": "address"
                }
            ],
            "name": "OwnershipTransferred",
            "type": "event"
        },
        {
            "anonymous": false,
            "inputs": [
                {
                    "indexed": true,
                    "internalType": "address",
                    "name": "from",
                    "type": "address"
                },
                {
                    "indexed": true,
                    "internalType": "address",
                    "name": "to",
                    "type": "address"
                },
                {
                    "indexed": true,
                    "internalType": "uint256",
                    "name": "tokenId",
                    "type": "uint256"
                }
            ],
            "name": "Transfer",
            "type": "event"
        },
        {
            "inputs": [],
            "name": "DECIMAL_PRECISION",
            "outputs": [
                {
                    "internalType": "uint256",
                    "name": "",
                    "type": "uint256"
                }
            ],
            "stateMutability": "view",
            "type": "function"
        },
        {
            "inputs": [
                {
                    "internalType": "address",
                    "name": "to",
                    "type": "address"
                },
                {
                    "internalType": "uint256",
                    "name": "tokenId",
                    "type": "uint256"
                }
            ],
            "name": "approve",
            "outputs": [],
            "stateMutability": "nonpayable",
            "type": "function"
        },
        {
            "inputs": [
                {
                    "internalType": "address",
                    "name": "owner",
                    "type": "address"
                }
            ],
            "name": "balanceOf",
            "outputs": [
                {
                    "internalType": "uint256",
                    "name": "",
                    "type": "uint256"
                }
            ],
            "stateMutability": "view",
            "type": "function"
        },
        {
            "inputs": [
                {
                    "internalType": "uint256",
                    "name": "tokenId",
                    "type": "uint256"
                }
            ],
            "name": "burn",
            "outputs": [],
            "stateMutability": "nonpayable",
            "type": "function"
        },
        {
            "inputs": [],
            "name": "contractURI",
            "outputs": [
                {
                    "internalType": "string",
                    "name": "",
                    "type": "string"
                }
            ],
            "stateMutability": "view",
            "type": "function"
        },
        {
            "inputs": [],
            "name": "creator",
            "outputs": [
                {
                    "internalType": "address",
                    "name": "",
                    "type": "address"
                }
            ],
            "stateMutability": "view",
            "type": "function"
        },
        {
            "inputs": [],
            "name": "currency",
            "outputs": [
                {
                    "internalType": "contract IERC20",
                    "name": "",
                    "type": "address"
                }
            ],
            "stateMutability": "view",
            "type": "function"
        },
        {
            "inputs": [
                {
                    "internalType": "uint256",
                    "name": "tokenId",
                    "type": "uint256"
                }
            ],
            "name": "getApproved",
            "outputs": [
                {
                    "internalType": "address",
                    "name": "",
                    "type": "address"
                }
            ],
            "stateMutability": "view",
            "type": "function"
        },
        {
            "inputs": [
                {
                    "internalType": "address",
                    "name": "owner",
                    "type": "address"
                },
                {
                    "internalType": "address",
                    "name": "operator",
                    "type": "address"
                }
            ],
            "name": "isApprovedForAll",
            "outputs": [
                {
                    "internalType": "bool",
                    "name": "",
                    "type": "bool"
                }
            ],
            "stateMutability": "view",
            "type": "function"
        },
        {
            "inputs": [],
            "name": "launchpad",
            "outputs": [
                {
                    "internalType": "contract INFTLaunchPad",
                    "name": "",
                    "type": "address"
                }
            ],
            "stateMutability": "view",
            "type": "function"
        },
        {
            "inputs": [],
            "name": "maxQuantity",
            "outputs": [
                {
                    "internalType": "uint256",
                    "name": "",
                    "type": "uint256"
                }
            ],
            "stateMutability": "view",
            "type": "function"
        },
        {
            "inputs": [],
            "name": "maxSupply",
            "outputs": [
                {
                    "internalType": "uint256",
                    "name": "",
                    "type": "uint256"
                }
            ],
            "stateMutability": "view",
            "type": "function"
        },
        {
            "inputs": [
                {
                    "internalType": "uint256",
                    "name": "_quantity",
                    "type": "uint256"
                },
                {
                    "internalType": "uint256",
                    "name": "nonce",
                    "type": "uint256"
                },
                {
                    "internalType": "bytes",
                    "name": "_signature",
                    "type": "bytes"
                },
                {
                    "internalType": "bool",
                    "name": "_isWhiteListed",
                    "type": "bool"
                }
            ],
            "name": "mint",
            "outputs": [],
            "stateMutability": "payable",
            "type": "function"
        },
        {
            "inputs": [
                {
                    "internalType": "uint256",
                    "name": "_quantity",
                    "type": "uint256"
                }
            ],
            "name": "mintByOwner",
            "outputs": [],
            "stateMutability": "nonpayable",
            "type": "function"
        },
        {
            "inputs": [],
            "name": "mintFee",
            "outputs": [
                {
                    "internalType": "uint256",
                    "name": "",
                    "type": "uint256"
                }
            ],
            "stateMutability": "view",
            "type": "function"
        },
        {
            "inputs": [],
            "name": "name",
            "outputs": [
                {
                    "internalType": "string",
                    "name": "",
                    "type": "string"
                }
            ],
            "stateMutability": "view",
            "type": "function"
        },
        {
            "inputs": [
                {
                    "internalType": "address",
                    "name": "",
                    "type": "address"
                }
            ],
            "name": "nftMinted",
            "outputs": [
                {
                    "internalType": "uint256",
                    "name": "",
                    "type": "uint256"
                }
            ],
            "stateMutability": "view",
            "type": "function"
        },
        {
            "inputs": [],
            "name": "owner",
            "outputs": [
                {
                    "internalType": "address",
                    "name": "",
                    "type": "address"
                }
            ],
            "stateMutability": "view",
            "type": "function"
        },
        {
            "inputs": [
                {
                    "internalType": "uint256",
                    "name": "tokenId",
                    "type": "uint256"
                }
            ],
            "name": "ownerOf",
            "outputs": [
                {
                    "internalType": "address",
                    "name": "",
                    "type": "address"
                }
            ],
            "stateMutability": "view",
            "type": "function"
        },
        {
            "inputs": [
                {
                    "internalType": "uint256",
                    "name": "",
                    "type": "uint256"
                }
            ],
            "name": "proceedNonce",
            "outputs": [
                {
                    "internalType": "bool",
                    "name": "",
                    "type": "bool"
                }
            ],
            "stateMutability": "view",
            "type": "function"
        },
        {
            "inputs": [],
            "name": "renounceOwnership",
            "outputs": [],
            "stateMutability": "nonpayable",
            "type": "function"
        },
        {
            "inputs": [
                {
                    "internalType": "uint256",
                    "name": "_tokenId",
                    "type": "uint256"
                },
                {
                    "internalType": "uint256",
                    "name": "_salePrice",
                    "type": "uint256"
                }
            ],
            "name": "royaltyInfo",
            "outputs": [
                {
                    "internalType": "address",
                    "name": "",
                    "type": "address"
                },
                {
                    "internalType": "uint256",
                    "name": "",
                    "type": "uint256"
                }
            ],
            "stateMutability": "view",
            "type": "function"
        },
        {
            "inputs": [
                {
                    "internalType": "address",
                    "name": "from",
                    "type": "address"
                },
                {
                    "internalType": "address",
                    "name": "to",
                    "type": "address"
                },
                {
                    "internalType": "uint256",
                    "name": "tokenId",
                    "type": "uint256"
                }
            ],
            "name": "safeTransferFrom",
            "outputs": [],
            "stateMutability": "nonpayable",
            "type": "function"
        },
        {
            "inputs": [
                {
                    "internalType": "address",
                    "name": "from",
                    "type": "address"
                },
                {
                    "internalType": "address",
                    "name": "to",
                    "type": "address"
                },
                {
                    "internalType": "uint256",
                    "name": "tokenId",
                    "type": "uint256"
                },
                {
                    "internalType": "bytes",
                    "name": "_data",
                    "type": "bytes"
                }
            ],
            "name": "safeTransferFrom",
            "outputs": [],
            "stateMutability": "nonpayable",
            "type": "function"
        },
        {
            "inputs": [
                {
                    "internalType": "address",
                    "name": "operator",
                    "type": "address"
                },
                {
                    "internalType": "bool",
                    "name": "approved",
                    "type": "bool"
                }
            ],
            "name": "setApprovalForAll",
            "outputs": [],
            "stateMutability": "nonpayable",
            "type": "function"
        },
        {
            "inputs": [
                {
                    "internalType": "uint256",
                    "name": "_amount",
                    "type": "uint256"
                }
            ],
            "name": "setMaxNFTPerUser",
            "outputs": [],
            "stateMutability": "nonpayable",
            "type": "function"
        },
        {
            "inputs": [
                {
                    "internalType": "uint256",
                    "name": "_amount",
                    "type": "uint256"
                }
            ],
            "name": "setMaxQuantity",
            "outputs": [],
            "stateMutability": "nonpayable",
            "type": "function"
        },
        {
            "inputs": [
                {
                    "internalType": "uint256",
                    "name": "_value",
                    "type": "uint256"
                }
            ],
            "name": "setMintFee",
            "outputs": [],
            "stateMutability": "nonpayable",
            "type": "function"
        },
        {
            "inputs": [
                {
                    "internalType": "uint256",
                    "name": "_value",
                    "type": "uint256"
                }
            ],
            "name": "setWhitelistedFee",
            "outputs": [],
            "stateMutability": "nonpayable",
            "type": "function"
        },
        {
            "inputs": [
                {
                    "internalType": "bytes4",
                    "name": "interfaceId",
                    "type": "bytes4"
                }
            ],
            "name": "supportsInterface",
            "outputs": [
                {
                    "internalType": "bool",
                    "name": "",
                    "type": "bool"
                }
            ],
            "stateMutability": "view",
            "type": "function"
        },
        {
            "inputs": [],
            "name": "symbol",
            "outputs": [
                {
                    "internalType": "string",
                    "name": "",
                    "type": "string"
                }
            ],
            "stateMutability": "view",
            "type": "function"
        },
        {
            "inputs": [],
            "name": "tokenCounter",
            "outputs": [
                {
                    "internalType": "uint256",
                    "name": "",
                    "type": "uint256"
                }
            ],
            "stateMutability": "view",
            "type": "function"
        },
        {
            "inputs": [
                {
                    "internalType": "uint256",
                    "name": "tokenId",
                    "type": "uint256"
                }
            ],
            "name": "tokenURI",
            "outputs": [
                {
                    "internalType": "string",
                    "name": "",
                    "type": "string"
                }
            ],
            "stateMutability": "view",
            "type": "function"
        },
        {
            "inputs": [],
            "name": "totalSupply",
            "outputs": [
                {
                    "internalType": "uint256",
                    "name": "",
                    "type": "uint256"
                }
            ],
            "stateMutability": "view",
            "type": "function"
        },
        {
            "inputs": [
                {
                    "internalType": "address",
                    "name": "from",
                    "type": "address"
                },
                {
                    "internalType": "address",
                    "name": "to",
                    "type": "address"
                },
                {
                    "internalType": "uint256",
                    "name": "tokenId",
                    "type": "uint256"
                }
            ],
            "name": "transferFrom",
            "outputs": [],
            "stateMutability": "nonpayable",
            "type": "function"
        },
        {
            "inputs": [
                {
                    "internalType": "address",
                    "name": "newOwner",
                    "type": "address"
                }
            ],
            "name": "transferOwnership",
            "outputs": [],
            "stateMutability": "nonpayable",
            "type": "function"
        },
        {
            "inputs": [],
            "name": "whitelistedFee",
            "outputs": [
                {
                    "internalType": "uint256",
                    "name": "",
                    "type": "uint256"
                }
            ],
            "stateMutability": "view",
            "type": "function"
        },
        {
            "inputs": [
                {
                    "internalType": "address",
                    "name": "_receiver",
                    "type": "address"
                }
            ],
            "name": "withdrawBNB",
            "outputs": [],
            "stateMutability": "nonpayable",
            "type": "function"
        },
        {
            "inputs": [
                {
                    "internalType": "address",
                    "name": "_receiver",
                    "type": "address"
                }
            ],
            "name": "withdrawERC20Token",
            "outputs": [],
            "stateMutability": "nonpayable",
            "type": "function"
        }
    ],
    "bytecode": "0x60c06040526005608081905264173539b7b760d91b60a09081526200002891600d9190620002db565b503480156200003657600080fd5b5060405162002f0b38038062002f0b833981016040819052620000599162000595565b8151602080840151825190916200007691600291850190620002db565b5080516200008c906003906020840190620002db565b50506001600055506200009f3362000184565b8351600b55602080850151600f55604080860151601055606086015160115560a086015160135560c0860151601455601280546001600160a01b0319166001600160a01b0387161790558301518051620000fe92600c920190620002db565b50606082015180516200011a91600e91602090910190620002db565b50601780546001600160a01b038084166001600160a01b031992831617909255601880549091163317905560125460808601516200015d929190911690620001d6565b60125462000174906001600160a01b031662000184565b50505060e00151601955620006c4565b600a80546001600160a01b038381166001600160a01b0319831681179093556040519116919082907f8be0079c531659141344cd1fd0a4f28419497f9722a3daafe3b4186f6b6457e090600090a35050565b6127106001600160601b03821611156200024a5760405162461bcd60e51b815260206004820152602a60248201527f455243323938313a20726f79616c7479206665652077696c6c206578636565646044820152692073616c65507269636560b01b60648201526084015b60405180910390fd5b6001600160a01b038216620002a25760405162461bcd60e51b815260206004820152601960248201527f455243323938313a20696e76616c696420726563656976657200000000000000604482015260640162000241565b604080518082019091526001600160a01b039092168083526001600160601b039091166020909201829052600160a01b90910217600855565b828054620002e99062000688565b90600052602060002090601f0160209004810192826200030d576000855562000358565b82601f106200032857805160ff191683800117855562000358565b8280016001018555821562000358579182015b82811115620003585782518255916020019190600101906200033b565b50620003669291506200036a565b5090565b5b808211156200036657600081556001016200036b565b634e487b7160e01b600052604160045260246000fd5b604051608081016001600160401b0381118282101715620003bc57620003bc62000381565b60405290565b60405161010081016001600160401b0381118282101715620003bc57620003bc62000381565b604051601f8201601f191681016001600160401b038111828210171562000413576200041362000381565b604052919050565b80516001600160a01b03811681146200043357600080fd5b919050565b600082601f8301126200044a57600080fd5b81516001600160401b0381111562000466576200046662000381565b60206200047c601f8301601f19168201620003e8565b82815285828487010111156200049157600080fd5b60005b83811015620004b157858101830151828201840152820162000494565b83811115620004c35760008385840101525b5095945050505050565b600060808284031215620004e057600080fd5b620004ea62000397565b82519091506001600160401b03808211156200050557600080fd5b620005138583860162000438565b835260208401519150808211156200052a57600080fd5b620005388583860162000438565b602084015260408401519150808211156200055257600080fd5b620005608583860162000438565b604084015260608401519150808211156200057a57600080fd5b50620005898482850162000438565b60608301525092915050565b600080600080848603610160811215620005ae57600080fd5b61010080821215620005bf57600080fd5b620005c9620003c2565b915086518252602087015160208301526040870151604083015260608701516060830152608087015160018060601b03811681146200060757600080fd5b8060808401525060a087015160a083015260c087015160c083015260e087015160e08301528195506200063c8188016200041b565b6101208801519095509150506001600160401b038111156200065d57600080fd5b6200066b87828801620004cd565b9250506200067d61014086016200041b565b905092959194509250565b600181811c908216806200069d57607f821691505b602082108103620006be57634e487b7160e01b600052602260045260246000fd5b50919050565b61283780620006d46000396000f3fe6080604052600436106102305760003560e01c806370a082311161012e578063c91ddad8116100ab578063e8a3d4851161006f578063e8a3d4851461068b578063e985e9c5146106a0578063eddd0d9c146106e9578063f2fde38b14610709578063f7651c3b1461072957600080fd5b8063c91ddad814610616578063d082e38114610629578063d5abeb011461063f578063e5a6b10f14610655578063e640cf7d1461067557600080fd5b806395d89b41116100f257806395d89b411461058c578063a20baee6146105a1578063a22cb465146105b6578063b88d4fde146105d6578063c87b56dd146105f657600080fd5b806370a08231146104e9578063715018a614610509578063726094711461051e5780638447a8bc1461053e5780638da5cb5b1461056e57600080fd5b806323b872dd116101bc57806342842e0e1161018057806342842e0e1461044957806342966c681461046957806349ca0602146104895780634a65a575146104a95780636352211e146104c957600080fd5b806323b872dd1461037d5780632a55205a1461039d5780632a944b19146103dc5780632f6f92b3146103fc5780633bdebbe11461042957600080fd5b8063081812fc11610203578063081812fc146102e4578063095ea7b31461030457806313966db51461032657806318160ddd1461034a5780631f8c8f661461036757600080fd5b806301ffc9a71461023557806302669b521461026a57806302d05d3f146102a257806306fdde03146102c2575b600080fd5b34801561024157600080fd5b506102556102503660046121f6565b610749565b60405190151581526020015b60405180910390f35b34801561027657600080fd5b5060185461028a906001600160a01b031681565b6040516001600160a01b039091168152602001610261565b3480156102ae57600080fd5b5060125461028a906001600160a01b031681565b3480156102ce57600080fd5b506102d7610769565b604051610261919061226b565b3480156102f057600080fd5b5061028a6102ff36600461227e565b6107fb565b34801561031057600080fd5b5061032461031f3660046122ac565b61083f565b005b34801561033257600080fd5b5061033c60105481565b604051908152602001610261565b34801561035657600080fd5b50600154600054036000190161033c565b34801561037357600080fd5b5061033c600f5481565b34801561038957600080fd5b506103246103983660046122d8565b6108df565b3480156103a957600080fd5b506103bd6103b8366004612319565b610a6f565b604080516001600160a01b039093168352602083019190915201610261565b3480156103e857600080fd5b506103246103f736600461227e565b610b1b565b34801561040857600080fd5b5061033c61041736600461233b565b601a6020526000908152604090205481565b34801561043557600080fd5b5061032461044436600461233b565b610b80565b34801561045557600080fd5b506103246104643660046122d8565b610d2b565b34801561047557600080fd5b5061032461048436600461227e565b610d4b565b34801561049557600080fd5b506103246104a436600461227e565b610dcb565b3480156104b557600080fd5b506103246104c436600461227e565b610dd8565b3480156104d557600080fd5b5061028a6104e436600461227e565b610de5565b3480156104f557600080fd5b5061033c61050436600461233b565b610df0565b34801561051557600080fd5b50610324610e3f565b34801561052a57600080fd5b5061032461053936600461233b565b610e53565b34801561054a57600080fd5b5061025561055936600461227e565b60156020526000908152604090205460ff1681565b34801561057a57600080fd5b50600a546001600160a01b031661028a565b34801561059857600080fd5b506102d7610e99565b3480156105ad57600080fd5b5061033c606481565b3480156105c257600080fd5b506103246105d1366004612366565b610ea8565b3480156105e257600080fd5b506103246105f13660046123b5565b610f3d565b34801561060257600080fd5b506102d761061136600461227e565b610f87565b610324610624366004612495565b61100e565b34801561063557600080fd5b5061033c60165481565b34801561064b57600080fd5b5061033c600b5481565b34801561066157600080fd5b5060175461028a906001600160a01b031681565b34801561068157600080fd5b5061033c60115481565b34801561069757600080fd5b506102d761144d565b3480156106ac57600080fd5b506102556106bb366004612530565b6001600160a01b03918216600090815260076020908152604080832093909416825291909152205460ff1690565b3480156106f557600080fd5b5061032461070436600461227e565b6114db565b34801561071557600080fd5b5061032461072436600461233b565b6114e8565b34801561073557600080fd5b5061032461074436600461227e565b61155e565b60006107548261156b565b806107635750610763826115b9565b92915050565b6060600280546107789061255e565b80601f01602080910402602001604051908101604052809291908181526020018280546107a49061255e565b80156107f15780601f106107c6576101008083540402835291602001916107f1565b820191906000526020600020905b8154815290600101906020018083116107d457829003601f168201915b5050505050905090565b6000610806826115ee565b610823576040516333d1c03960e21b815260040160405180910390fd5b506000908152600660205260409020546001600160a01b031690565b600061084a82610de5565b9050336001600160a01b038216146108835761086681336106bb565b610883576040516367d9dca160e11b815260040160405180910390fd5b60008281526006602052604080822080546001600160a01b0319166001600160a01b0387811691821790925591518593918516917f8c5be1e5ebec7d5bd14f71427d1e84f3dd0314c0f7b2291e5b200ac8c7c3b92591a4505050565b60006108ea82611623565b9050836001600160a01b0316816001600160a01b03161461091d5760405162a1148160e81b815260040160405180910390fd5b600082815260066020526040902080546109498187335b6001600160a01b039081169116811491141790565b6109745761095786336106bb565b61097457604051632ce44b5f60e11b815260040160405180910390fd5b6001600160a01b03851661099b57604051633a954ecd60e21b815260040160405180910390fd5b80156109a657600082555b6001600160a01b038681166000908152600560205260408082208054600019019055918716808252919020805460010190554260a01b17600160e11b17600085815260046020526040812091909155600160e11b84169003610a3857600184016000818152600460205260408120549003610a36576000548114610a365760008181526004602052604090208490555b505b83856001600160a01b0316876001600160a01b03166000805160206127e283398151915260405160405180910390a4505050505050565b60008281526009602090815260408083208151808301909252546001600160a01b038116808352600160a01b9091046001600160601b0316928201929092528291610ae45750604080518082019091526008546001600160a01b0381168252600160a01b90046001600160601b031660208201525b602081015160009061271090610b03906001600160601b0316876125ae565b610b0d91906125cd565b915196919550909350505050565b610b23611699565b600b5481601654610b3491906125ef565b1115610b5b5760405162461bcd60e51b8152600401610b5290612607565b60405180910390fd5b8060166000828254610b6d91906125ef565b90915550610b7d905033826116f3565b50565b610b88611699565b6017546040516370a0823160e01b81523060048201526000916001600160a01b0316906370a0823190602401602060405180830381865afa158015610bd1573d6000803e3d6000fd5b505050506040513d601f19601f82011682018060405250810190610bf59190612651565b11610c425760405162461bcd60e51b815260206004820181905260248201527f4e4654436f6c6c656374696f6e3a20496e73756666696369656e742066756e646044820152606401610b52565b6017546040516370a0823160e01b81523060048201526001600160a01b039091169063a9059cbb90839083906370a0823190602401602060405180830381865afa158015610c94573d6000803e3d6000fd5b505050506040513d601f19601f82011682018060405250810190610cb89190612651565b6040516001600160e01b031960e085901b1681526001600160a01b03909216600483015260248201526044016020604051808303816000875af1158015610d03573d6000803e3d6000fd5b505050506040513d601f19601f82011682018060405250810190610d27919061266a565b5050565b610d4683838360405180602001604052806000815250610f3d565b505050565b33610d5582610de5565b6001600160a01b031614610dc05760405162461bcd60e51b815260206004820152602c60248201527f4e4654436f6c6c656374696f6e3a2043616c6c6572206973206e6f742074686560448201526b103a37b5b2b71037bbb732b960a11b6064820152608401610b52565b610b7d8160006117cd565b610dd3611699565b600f55565b610de0611699565b601155565b600061076382611623565b60006001600160a01b038216610e19576040516323d3ad8160e21b815260040160405180910390fd5b506001600160a01b031660009081526005602052604090205467ffffffffffffffff1690565b610e47611699565b610e516000611905565b565b610e5b611699565b806001600160a01b03166108fc610e7130610df0565b6040518115909202916000818181858888f19350505050158015610d27573d6000803e3d6000fd5b6060600380546107789061255e565b336001600160a01b03831603610ed15760405163b06307db60e01b815260040160405180910390fd5b3360008181526007602090815260408083206001600160a01b03871680855290835292819020805460ff191686151590811790915590519081529192917f17307eab39ab6107e8899845ad3d59bd9653f200f220920489ca2b5937696c31910160405180910390a35050565b610f488484846108df565b6001600160a01b0383163b15610f8157610f6484848484611957565b610f81576040516368d2bf6b60e11b815260040160405180910390fd5b50505050565b6060610f92826115ee565b610faf57604051630a14c4b560e41b815260040160405180910390fd5b600c8054610fbc9061255e565b9050600003610fda5760405180602001604052806000815250610763565b600c610fe583611a42565b600d604051602001610ff993929190612720565b60405160208183030381529060405292915050565b600b548560165461101f91906125ef565b111561103d5760405162461bcd60e51b8152600401610b5290612607565b846016600082825461104f91906125ef565b9091555050601954336000908152601a60205260409020546110729087906125ef565b11156110c05760405162461bcd60e51b815260206004820181905260248201527f4e4654436f6c6c656374696f6e3a204d6178206c696d697420726561636865646044820152606401610b52565b60008481526015602052604090205460ff161561112d5760405162461bcd60e51b815260206004820152602560248201527f4e4654436f6c6c656374696f6e3a204e6f6e636520616c72656164792070726f604482015264636565642160d81b6064820152608401610b52565b60008511801561113f57506011548511155b6111975760405162461bcd60e51b815260206004820152602360248201527f4e4654436f6c6c656374696f6e3a204d6178207175616e7469747920726561636044820152621a195960ea1b6064820152608401610b52565b60006111db33868487878080601f016020809104026020016040519081016040528093929190818152602001838380828437600092019190915250611a7a92505050565b90508080156111ec57506013544210155b80156111fa57506014544211155b156112d757600f54156112d25760175460009061121f906001600160a01b0316611b70565b6017549091506001600160a01b03166112b95786600f5461124091906125ae565b3410156112aa5760405162461bcd60e51b815260206004820152603260248201527f4e4654436f6c6c656374696f6e3a2057686974656c697374656420616d6f756e6044820152713a1034b99034b739bab33334b1b4b2b73a1760711b6064820152608401610b52565b6112b48134611c59565b6112d0565b6112d08188600f546112cb91906125ae565b611d4b565b505b6113ff565b601054156113ff576017546000906112f7906001600160a01b0316611b70565b9050601454421161135f5760405162461bcd60e51b815260206004820152602c60248201527f4e4654436f6c6c656374696f6e3a2057686974656c6973742073616c65206e6f60448201526b3a1032b73232b2103cb2ba1760a11b6064820152608401610b52565b6017546001600160a01b03166113eb578660105461137d91906125ae565b3410156113dc5760405162461bcd60e51b815260206004820152602760248201527f4e4654436f6c6c656374696f6e3a2020616d6f756e7420697320696e7375666660448201526634b1b4b2b73a1760c91b6064820152608401610b52565b6113e68134611c59565b6113fd565b6113fd81886010546112cb91906125ae565b505b61140933876116f3565b336000908152601a6020526040812080548892906114289084906125ef565b9091555050506000938452505060156020525060409020805460ff1916600117905550565b600e805461145a9061255e565b80601f01602080910402602001604051908101604052809291908181526020018280546114869061255e565b80156114d35780601f106114a8576101008083540402835291602001916114d3565b820191906000526020600020905b8154815290600101906020018083116114b657829003601f168201915b505050505081565b6114e3611699565b601055565b6114f0611699565b6001600160a01b0381166115555760405162461bcd60e51b815260206004820152602660248201527f4f776e61626c653a206e6577206f776e657220697320746865207a65726f206160448201526564647265737360d01b6064820152608401610b52565b610b7d81611905565b611566611699565b601955565b60006301ffc9a760e01b6001600160e01b03198316148061159c57506380ac58cd60e01b6001600160e01b03198316145b806107635750506001600160e01b031916635b5e139f60e01b1490565b60006001600160e01b0319821663152a902d60e11b148061076357506301ffc9a760e01b6001600160e01b0319831614610763565b600081600111158015611602575060005482105b8015610763575050600090815260046020526040902054600160e01b161590565b60008180600111611680576000548110156116805760008181526004602052604081205490600160e01b8216900361167e575b80600003611677575060001901600081815260046020526040902054611656565b9392505050565b505b604051636f96cda160e11b815260040160405180910390fd5b600a546001600160a01b03163314610e515760405162461bcd60e51b815260206004820181905260248201527f4f776e61626c653a2063616c6c6572206973206e6f7420746865206f776e65726044820152606401610b52565b60008054908290036117185760405163b562e8dd60e01b815260040160405180910390fd5b6001600160a01b03831660008181526005602090815260408083208054680100000000000000018802019055848352600490915281206001851460e11b4260a01b178317905582840190839083906000805160206127e28339815191528180a4600183015b8181146117a357808360006000805160206127e2833981519152600080a460010161177d565b50816000036117c457604051622e076360e81b815260040160405180910390fd5b60005550505050565b60006117d883611623565b9050806000806117f686600090815260066020526040902080549091565b9150915084156118365761180b818433610934565b6118365761181983336106bb565b61183657604051632ce44b5f60e11b815260040160405180910390fd5b801561184157600082555b6001600160a01b038316600081815260056020526040902080546fffffffffffffffffffffffffffffffff0190554260a01b17600360e01b17600087815260046020526040812091909155600160e11b851690036118cf576001860160008181526004602052604081205490036118cd5760005481146118cd5760008181526004602052604090208590555b505b60405186906000906001600160a01b038616906000805160206127e2833981519152908390a45050600180548101905550505050565b600a80546001600160a01b038381166001600160a01b0319831681179093556040519116919082907f8be0079c531659141344cd1fd0a4f28419497f9722a3daafe3b4186f6b6457e090600090a35050565b604051630a85bd0160e11b81526000906001600160a01b0385169063150b7a029061198c903390899088908890600401612753565b6020604051808303816000875af19250505080156119c7575060408051601f3d908101601f191682019092526119c491810190612790565b60015b611a25573d8080156119f5576040519150601f19603f3d011682016040523d82523d6000602084013e6119fa565b606091505b508051600003611a1d576040516368d2bf6b60e11b815260040160405180910390fd5b805181602001fd5b6001600160e01b031916630a85bd0160e11b149050949350505050565b604080516080019081905280825b600183039250600a81066030018353600a900480611a505750819003601f19909101908152919050565b6018546040516bffffffffffffffffffffffff1930606090811b8216602084015292831b811660348301529186901b9091166048820152605c810184905282151560f81b607c8201526000908190607d016040516020818303038152906040528051906020012090506000611aef8285611fde565b9050611af961209e565b6001600160a01b0316816001600160a01b031614611b655760405162461bcd60e51b8152602060048201526024808201527f4e4654436f6c6c656374696f6e3a2055736572206973206e6f742076657269666044820152636965642160e01b6064820152608401610b52565b509295945050505050565b6018546040516327e5684d60e01b81526001600160a01b03838116600483015260009283929116906327e5684d90602401602060405180830381865afa158015611bbe573d6000803e3d6000fd5b505050506040513d601f19601f82011682018060405250810190611be29190612651565b905080600003611c475760405162461bcd60e51b815260206004820152602a60248201527f4e4654436f6c6c656374696f6e3a2043757272656e637920646f65736e27742060448201526939bab83837b93a32b21760b11b6064820152608401610b52565b60008112156107635750600092915050565b8115611d11576000611c6c6064806125ae565b611c7684846125ae565b611c8091906125cd565b9050611c8a612111565b6001600160a01b03166108fc829081150290604051600060405180830381858888f19350505050158015611cc2573d6000803e3d6000fd5b506000611ccf82846127ad565b6012546040519192506001600160a01b03169082156108fc029083906000818181858888f19350505050158015611d0a573d6000803e3d6000fd5b5050505050565b6012546040516001600160a01b039091169082156108fc029083906000818181858888f19350505050158015610d46573d6000803e3d6000fd5b601754604051636eb1769f60e11b815233600482015230602482015282916001600160a01b03169063dd62ed3e90604401602060405180830381865afa158015611d99573d6000803e3d6000fd5b505050506040513d601f19601f82011682018060405250810190611dbd9190612651565b1015611e1e5760405162461bcd60e51b815260206004820152602a60248201527f4e4654436f6c6c656374696f6e3a20496e73756666696369656e742066756e6460448201526920616c6c6f77616e636560b01b6064820152608401610b52565b8115611f63576000611e316064806125ae565b611e3b84846125ae565b611e4591906125cd565b6017549091506001600160a01b03166323b872dd33611e62612111565b6040516001600160e01b031960e085901b1681526001600160a01b03928316600482015291166024820152604481018490526064016020604051808303816000875af1158015611eb6573d6000803e3d6000fd5b505050506040513d601f19601f82011682018060405250810190611eda919061266a565b506000611ee782846127ad565b6017546040516323b872dd60e01b8152336004820152306024820152604481018390529192506001600160a01b0316906323b872dd906064016020604051808303816000875af1158015611f3f573d6000803e3d6000fd5b505050506040513d601f19601f82011682018060405250810190611d0a919061266a565b6017546040516323b872dd60e01b8152336004820152306024820152604481018390526001600160a01b03909116906323b872dd906064016020604051808303816000875af1158015611fba573d6000803e3d6000fd5b505050506040513d601f19601f82011682018060405250810190610d46919061266a565b600080600080611fed8561215b565b6040517f19457468657265756d205369676e6564204d6573736167653a0a3332000000006020820152603c81018a90529295509093509150600190605c0160408051601f198184030181528282528051602091820120600084529083018083525260ff841690820152606081018590526080810184905260a0016020604051602081039080840390855afa158015612089573d6000803e3d6000fd5b5050604051601f190151979650505050505050565b60185460408051631719a22960e11b815290516000926001600160a01b031691632e3344529160048083019260209291908290030181865afa1580156120e8573d6000803e3d6000fd5b505050506040513d601f19601f8201168201806040525081019061210c91906127c4565b905090565b60185460408051632844fbcb60e11b815290516000926001600160a01b031691635089f7969160048083019260209291908290030181865afa1580156120e8573d6000803e3d6000fd5b600080600083516041146121c25760405162461bcd60e51b815260206004820152602860248201527f4e4654436f6c6c656374696f6e3a20696e76616c6964207369676e6174757265604482015267103632b733ba341760c11b6064820152608401610b52565b50505060208101516040820151606090920151909260009190911a90565b6001600160e01b031981168114610b7d57600080fd5b60006020828403121561220857600080fd5b8135611677816121e0565b60005b8381101561222e578181015183820152602001612216565b83811115610f815750506000910152565b60008151808452612257816020860160208601612213565b601f01601f19169290920160200192915050565b602081526000611677602083018461223f565b60006020828403121561229057600080fd5b5035919050565b6001600160a01b0381168114610b7d57600080fd5b600080604083850312156122bf57600080fd5b82356122ca81612297565b946020939093013593505050565b6000806000606084860312156122ed57600080fd5b83356122f881612297565b9250602084013561230881612297565b929592945050506040919091013590565b6000806040838503121561232c57600080fd5b50508035926020909101359150565b60006020828403121561234d57600080fd5b813561167781612297565b8015158114610b7d57600080fd5b6000806040838503121561237957600080fd5b823561238481612297565b9150602083013561239481612358565b809150509250929050565b634e487b7160e01b600052604160045260246000fd5b600080600080608085870312156123cb57600080fd5b84356123d681612297565b935060208501356123e681612297565b925060408501359150606085013567ffffffffffffffff8082111561240a57600080fd5b818701915087601f83011261241e57600080fd5b8135818111156124305761243061239f565b604051601f8201601f19908116603f011681019083821181831017156124585761245861239f565b816040528281528a602084870101111561247157600080fd5b82602086016020830137600060208483010152809550505050505092959194509250565b6000806000806000608086880312156124ad57600080fd5b8535945060208601359350604086013567ffffffffffffffff808211156124d357600080fd5b818801915088601f8301126124e757600080fd5b8135818111156124f657600080fd5b89602082850101111561250857600080fd5b602083019550809450505050606086013561252281612358565b809150509295509295909350565b6000806040838503121561254357600080fd5b823561254e81612297565b9150602083013561239481612297565b600181811c9082168061257257607f821691505b60208210810361259257634e487b7160e01b600052602260045260246000fd5b50919050565b634e487b7160e01b600052601160045260246000fd5b60008160001904831182151516156125c8576125c8612598565b500290565b6000826125ea57634e487b7160e01b600052601260045260246000fd5b500490565b6000821982111561260257612602612598565b500190565b6020808252602a908201527f4e4654436f6c6c656374696f6e3a204d617820737570706c79206d75737420626040820152696520677265617465722160b01b606082015260800190565b60006020828403121561266357600080fd5b5051919050565b60006020828403121561267c57600080fd5b815161167781612358565b8054600090600181811c90808316806126a157607f831692505b602080841082036126c257634e487b7160e01b600052602260045260246000fd5b8180156126d657600181146126e757612714565b60ff19861689528489019650612714565b60008881526020902060005b8681101561270c5781548b8201529085019083016126f3565b505084890196505b50505050505092915050565b600061272c8286612687565b845161273c818360208901612213565b61274881830186612687565b979650505050505050565b6001600160a01b03858116825284166020820152604081018390526080606082018190526000906127869083018461223f565b9695505050505050565b6000602082840312156127a257600080fd5b8151611677816121e0565b6000828210156127bf576127bf612598565b500390565b6000602082840312156127d657600080fd5b81516116778161229756feddf252ad1be2c89b69c2b068fc378daa952ba7f163c4a11628f55a4df523b3efa2646970667358221220592a12e2505e1179877b4b057ac3ad5e2cadd78aec32d3906d87ad588893e44664736f6c634300080d0033",
    "linkReferences": {},
    "deployedLinkReferences": {}
}